{
  "contractName": "AquariumGarden",
  "abi": [
    {
      "constant": true,
      "inputs": [],
      "name": "owner",
      "outputs": [
        {
          "name": "",
          "type": "address"
        }
      ],
      "payable": false,
      "stateMutability": "view",
      "type": "function"
    },
    {
      "constant": true,
      "inputs": [
        {
          "name": "",
          "type": "uint256"
        }
      ],
      "name": "seabies",
      "outputs": [
        {
          "name": "name",
          "type": "string"
        },
        {
          "name": "generation",
          "type": "uint16"
        },
        {
          "name": "birthtime",
          "type": "uint64"
        },
        {
          "name": "siringCD",
          "type": "uint256"
        },
        {
          "name": "forSale",
          "type": "bool"
        }
      ],
      "payable": false,
      "stateMutability": "view",
      "type": "function"
    },
    {
      "constant": true,
      "inputs": [
        {
          "name": "",
          "type": "uint256"
        }
      ],
      "name": "SeabyToOwner",
      "outputs": [
        {
          "name": "",
          "type": "address"
        }
      ],
      "payable": false,
      "stateMutability": "view",
      "type": "function"
    },
    {
      "constant": false,
      "inputs": [
        {
          "name": "newOwner",
          "type": "address"
        }
      ],
      "name": "transferOwnership",
      "outputs": [],
      "payable": false,
      "stateMutability": "nonpayable",
      "type": "function"
    },
    {
      "anonymous": false,
      "inputs": [
        {
          "indexed": false,
          "name": "seabyId",
          "type": "uint256"
        },
        {
          "indexed": false,
          "name": "name",
          "type": "string"
        }
      ],
      "name": "SeabyBirth",
      "type": "event"
    },
    {
      "anonymous": false,
      "inputs": [
        {
          "indexed": false,
          "name": "from",
          "type": "address"
        },
        {
          "indexed": false,
          "name": "to",
          "type": "address"
        },
        {
          "indexed": false,
          "name": "tokenId",
          "type": "uint256"
        }
      ],
      "name": "TransferFinish",
      "type": "event"
    },
    {
      "anonymous": false,
      "inputs": [
        {
          "indexed": true,
          "name": "previousOwner",
          "type": "address"
        },
        {
          "indexed": true,
          "name": "newOwner",
          "type": "address"
        }
      ],
      "name": "OwnershipTransferred",
      "type": "event"
    },
    {
      "constant": false,
      "inputs": [
        {
          "name": "_name",
          "type": "string"
        }
      ],
      "name": "createRandomSeaby",
      "outputs": [],
      "payable": false,
      "stateMutability": "nonpayable",
      "type": "function"
    }
  ],
  "bytecode": "0x60806040526004600060146101000a81548160ff021916908360ff160217905550336000806101000a81548173ffffffffffffffffffffffffffffffffffffffff021916908373ffffffffffffffffffffffffffffffffffffffff160217905550610c678061006f6000396000f30060806040526004361061006d576000357c0100000000000000000000000000000000000000000000000000000000900463ffffffff1680638da5cb5b14610072578063a2d1aeb6146100c9578063aaf34036146101ab578063af9336e914610218578063f2fde38b14610281575b600080fd5b34801561007e57600080fd5b506100876102c4565b604051808273ffffffffffffffffffffffffffffffffffffffff1673ffffffffffffffffffffffffffffffffffffffff16815260200191505060405180910390f35b3480156100d557600080fd5b506100f4600480360381019080803590602001909291905050506102e9565b60405180806020018661ffff1661ffff1681526020018567ffffffffffffffff1667ffffffffffffffff16815260200184815260200183151515158152602001828103825287818151815260200191508051906020019080838360005b8381101561016c578082015181840152602081019050610151565b50505050905090810190601f1680156101995780820380516001836020036101000a031916815260200191505b50965050505050505060405180910390f35b3480156101b757600080fd5b506101d6600480360381019080803590602001909291905050506103f5565b604051808273ffffffffffffffffffffffffffffffffffffffff1673ffffffffffffffffffffffffffffffffffffffff16815260200191505060405180910390f35b34801561022457600080fd5b5061027f600480360381019080803590602001908201803590602001908080601f0160208091040260200160405190810160405280939291908181526020018383808284378201915050505050509192919290505050610428565b005b34801561028d57600080fd5b506102c2600480360381019080803573ffffffffffffffffffffffffffffffffffffffff1690602001909291905050506104e2565b005b6000809054906101000a900473ffffffffffffffffffffffffffffffffffffffff1681565b6001818154811015156102f857fe5b9060005260206000209060050201600091509050806000018054600181600116156101000203166002900480601f0160208091040260200160405190810160405280929190818152602001828054600181600116156101000203166002900480156103a45780601f10610379576101008083540402835291602001916103a4565b820191906000526020600020905b81548152906001019060200180831161038757829003601f168201915b5050505050908060010160009054906101000a900461ffff16908060010160029054906101000a900467ffffffffffffffff16908060020154908060030160009054906101000a900460ff16905085565b60026020528060005260406000206000915054906101000a900473ffffffffffffffffffffffffffffffffffffffff1681565b600060606000339250600060149054906101000a900460ff1660ff166040519080825280602002602001820160405280156104725781602001602082028038833980820191505090505b509150600090505b600060149054906101000a900460ff1660ff168110156104cf5761049c610637565b82828151811015156104aa57fe5b9060200190602002019061ffff16908161ffff1681525050808060010191505061047a565b6104dc8460008585610717565b50505050565b6000809054906101000a900473ffffffffffffffffffffffffffffffffffffffff1673ffffffffffffffffffffffffffffffffffffffff163373ffffffffffffffffffffffffffffffffffffffff1614151561053d57600080fd5b600073ffffffffffffffffffffffffffffffffffffffff168173ffffffffffffffffffffffffffffffffffffffff161415151561057957600080fd5b8073ffffffffffffffffffffffffffffffffffffffff166000809054906101000a900473ffffffffffffffffffffffffffffffffffffffff1673ffffffffffffffffffffffffffffffffffffffff167f8be0079c531659141344cd1fd0a4f28419497f9722a3daafe3b4186f6b6457e060405160405180910390a3806000806101000a81548173ffffffffffffffffffffffffffffffffffffffff021916908373ffffffffffffffffffffffffffffffffffffffff16021790555050565b6000806000600391506064423384604051808481526020018373ffffffffffffffffffffffffffffffffffffffff1673ffffffffffffffffffffffffffffffffffffffff166c010000000000000000000000000281526014018260ff1660ff167f010000000000000000000000000000000000000000000000000000000000000002815260010193505050506040518091039020600190048115156106d857fe5b0690506021811115156106ee5760019250610712565b6021811180156106ff575060438111155b1561070d5760029250610712565b600392505b505090565b6000610721610b56565b600062015180925060a0604051908101604052808881526020018761ffff1681526020014267ffffffffffffffff168152602001848152602001600015158152509150600180839080600181540180825580915050906001820390600052602060002090600502016000909192909190915060008201518160000190805190602001906107af929190610b96565b5060208201518160010160006101000a81548161ffff021916908361ffff16021790555060408201518160010160026101000a81548167ffffffffffffffff021916908367ffffffffffffffff1602179055506060820151816002015560808201518160030160006101000a81548160ff021916908315150217905550505003905061083b81856108f4565b7f36026835b208a23745db38d36cced019e4c2b46b073d40f86a67baccb51e6fa781886040518083815260200180602001828103825283818151815260200191508051906020019080838360005b838110156108a4578082015181840152602081019050610889565b50505050905090810190601f1680156108d15780820380516001836020036101000a031916815260200191505b50935050505060405180910390a16108eb6000868361098a565b50505050505050565b60008060018481548110151561090657fe5b90600052602060002090600502019150600090505b82518160ff16101561098457828160ff1681518110151561093857fe5b906020019060200201518260040160008360ff1660ff16815260200190815260200160002060006101000a81548161ffff021916908361ffff160217905550808060010191505061091b565b50505050565b600360008373ffffffffffffffffffffffffffffffffffffffff1673ffffffffffffffffffffffffffffffffffffffff16815260200190815260200160002060008154809291906001019190505550816002600083815260200190815260200160002060006101000a81548173ffffffffffffffffffffffffffffffffffffffff021916908373ffffffffffffffffffffffffffffffffffffffff160217905550600073ffffffffffffffffffffffffffffffffffffffff168373ffffffffffffffffffffffffffffffffffffffff16141515610ab257600360008473ffffffffffffffffffffffffffffffffffffffff1673ffffffffffffffffffffffffffffffffffffffff16815260200190815260200160002060008154809291906001900391905055505b7f615a90b6cfa77287f9e381f0aed394618bcfa338a2b4039eb03854fd16277f6d838383604051808473ffffffffffffffffffffffffffffffffffffffff1673ffffffffffffffffffffffffffffffffffffffff1681526020018373ffffffffffffffffffffffffffffffffffffffff1673ffffffffffffffffffffffffffffffffffffffff168152602001828152602001935050505060405180910390a1505050565b60a06040519081016040528060608152602001600061ffff168152602001600067ffffffffffffffff168152602001600081526020016000151581525090565b828054600181600116156101000203166002900490600052602060002090601f016020900481019282601f10610bd757805160ff1916838001178555610c05565b82800160010185558215610c05579182015b82811115610c04578251825591602001919060010190610be9565b5b509050610c129190610c16565b5090565b610c3891905b80821115610c34576000816000905550600101610c1c565b5090565b905600a165627a7a723058202c766008980eb11f9de329f8244fe16dc7857d35eaa7e9e2a2efdfc7f825bac40029",
  "source": "pragma solidity ^0.4.19;\r\n\r\nimport \"./Ownable.sol\";\r\n\r\ncontract AquariumGarden is Ownable {\r\n    //  The Birth event is called whenever a new creature is created.\r\n    event SeabyBirth(uint seabyId, string name);\r\n    //  The TransferFinish is called when a transaction is over.\r\n    event TransferFinish(address from, address to, uint256 tokenId);\r\n\r\n    //  The data structure of Seaby\r\n    struct Seaby {\r\n      string name;\r\n      uint16 generation;//?\r\n      uint64 birthtime;\r\n      // The coolddown for the next breeding\r\n      uint siringCD;\r\n      bool forSale;\r\n      mapping (uint8 => uint16) features;//0-eyes. 1-mouth. 2-color 3-body\r\n    }\r\n    uint8 _numberOfFeatures = 4;\r\n    Seaby[] public seabies;\r\n    // A mapping from Seaby IDs to the address of owns them. Gen0 Seabies are created with a non-zero owner.\r\n    mapping (uint => address) public SeabyToOwner;\r\n    // A mapping from owner address to count of tokens that address owns.\r\n    mapping (address => uint) ownerSeabyCount;\r\n    \r\n    function _getNumberOfFeatures() internal view returns(uint8) {\r\n        return _numberOfFeatures;    \r\n    }\r\n    function _updateNumberOfFeatures(uint8 _newNumber) internal {\r\n        _numberOfFeatures = _newNumber;\r\n    }\r\n    \r\n    //  An internal method that creates a new Seaby and stores it. Will generate both a Birth event\r\n    //  and a Transfer event.\r\n    function _createSeaby(string _name, uint16 _generation, address _owner, uint16[] _features) internal {\r\n        uint _siringCD = 1 days;\r\n        \r\n        Seaby memory _seaby = Seaby({\r\n            name: _name,\r\n            generation: _generation,\r\n            birthtime: uint64(now),\r\n            siringCD:  _siringCD,\r\n            forSale: false\r\n        });\r\n\r\n        uint NewCBId = seabies.push(_seaby)-1;\r\n        _setFeatures(NewCBId,_features);\r\n        SeabyBirth(NewCBId, _name);\r\n        _transfer(0,_owner,NewCBId);\r\n    }\r\n    function _setFeatures(uint _seabyId, uint16[] _features) internal{\r\n        Seaby storage _seaby = seabies[_seabyId];\r\n        for (uint8 i = 0; i < _features.length; i++){\r\n            _seaby.features[i] = _features[i];\r\n        }\r\n    }\r\n    // A return function that will generate a random style by a feature index and return style of feature\r\n    function _generateRandomFeatures() internal view returns (uint16) {\r\n        // uint rand = uint(keccak256(_str));\r\n        uint8 randNonce = 3;//should be a seed of random number\r\n        uint random = uint(keccak256(now, msg.sender, randNonce)) % 100;//0-100 random number\r\n        if (random <= 33){\r\n            return 1;\r\n        }\r\n        else if(random > 33 && random <= 67) {\r\n            return 2;\r\n        }\r\n        else{\r\n            return 3;\r\n        }\r\n    }\r\n    // A return function that will generate a new Seaby by calling _createSeaby function and return an array of features\r\n    function createRandomSeaby(string _name) public {\r\n        //require(ownerSeabyCount[msg.sender] == 0);\r\n        address _owner = msg.sender;\r\n        // int size = 4;\r\n        uint16[] memory _randFeatures = new uint16[](_numberOfFeatures); \r\n        for(uint i = 0; i < _numberOfFeatures; i++){\r\n            _randFeatures[i] = _generateRandomFeatures();\r\n        }\r\n        _createSeaby(_name, 0, _owner, _randFeatures);\r\n    }\r\n    // A internal function that can transfer a Seaby from one to other and generate a TransferFinish event.\r\n    function _transfer(address _from, address _to, uint256 _tokenId) internal{\r\n        ownerSeabyCount[_to]++;\r\n        SeabyToOwner[_tokenId] = _to;\r\n        if(_from != address(0)){\r\n            ownerSeabyCount[_from]--;\r\n        }\r\n        TransferFinish(_from,_to,_tokenId);\r\n    }\r\n}\r\n",
  "sourcePath": "C:\\Users\\chong\\Documents\\works\\KU_2018_Fall\\EECS_581\\p1\\forks\\Seathereum\\truffle\\contracts\\AquariumGarden.sol",
  "compiler": {
    "name": "solc",
    "version": "0.4.24+commit.e67f0147.Emscripten.clang"
  },
  "schemaVersion": "2.0.1",
  "updatedAt": "2019-01-21T07:04:51.512Z"
}