{
  "contractName": "AquariumGarden",
  "abi": [
    {
      "constant": true,
      "inputs": [],
      "name": "owner",
      "outputs": [
        {
          "name": "",
          "type": "address"
        }
      ],
      "payable": false,
      "stateMutability": "view",
      "type": "function"
    },
    {
      "constant": true,
      "inputs": [
        {
          "name": "",
          "type": "uint256"
        }
      ],
      "name": "seabies",
      "outputs": [
        {
          "name": "name",
          "type": "string"
        },
        {
          "name": "dna",
          "type": "uint256"
        },
        {
          "name": "generation",
          "type": "uint16"
        },
        {
          "name": "birthtime",
          "type": "uint64"
        },
        {
          "name": "siringCD",
          "type": "uint256"
        }
      ],
      "payable": false,
      "stateMutability": "view",
      "type": "function"
    },
    {
      "constant": true,
      "inputs": [
        {
          "name": "",
          "type": "uint256"
        }
      ],
      "name": "SeabyToOwner",
      "outputs": [
        {
          "name": "",
          "type": "address"
        }
      ],
      "payable": false,
      "stateMutability": "view",
      "type": "function"
    },
    {
      "constant": false,
      "inputs": [
        {
          "name": "newOwner",
          "type": "address"
        }
      ],
      "name": "transferOwnership",
      "outputs": [],
      "payable": false,
      "stateMutability": "nonpayable",
      "type": "function"
    },
    {
      "anonymous": false,
      "inputs": [
        {
          "indexed": false,
          "name": "seabyId",
          "type": "uint256"
        },
        {
          "indexed": false,
          "name": "name",
          "type": "string"
        },
        {
          "indexed": false,
          "name": "dna",
          "type": "uint256"
        }
      ],
      "name": "SeabyBirth",
      "type": "event"
    },
    {
      "anonymous": false,
      "inputs": [
        {
          "indexed": false,
          "name": "from",
          "type": "address"
        },
        {
          "indexed": false,
          "name": "to",
          "type": "address"
        },
        {
          "indexed": false,
          "name": "tokenId",
          "type": "uint256"
        }
      ],
      "name": "TransferFinish",
      "type": "event"
    },
    {
      "anonymous": false,
      "inputs": [
        {
          "indexed": true,
          "name": "previousOwner",
          "type": "address"
        },
        {
          "indexed": true,
          "name": "newOwner",
          "type": "address"
        }
      ],
      "name": "OwnershipTransferred",
      "type": "event"
    },
    {
      "constant": false,
      "inputs": [
        {
          "name": "_name",
          "type": "string"
        }
      ],
      "name": "createRandomSeaby",
      "outputs": [],
      "payable": false,
      "stateMutability": "nonpayable",
      "type": "function"
    }
  ],
  "bytecode": "0x60806040526010600155600154600a0a600255336000806101000a81548173ffffffffffffffffffffffffffffffffffffffff021916908373ffffffffffffffffffffffffffffffffffffffff160217905550610baf806100616000396000f30060806040526004361061006d576000357c0100000000000000000000000000000000000000000000000000000000900463ffffffff1680638da5cb5b14610072578063a2d1aeb6146100c9578063aaf34036146101a7578063af9336e914610214578063f2fde38b1461027d575b600080fd5b34801561007e57600080fd5b506100876102c0565b604051808273ffffffffffffffffffffffffffffffffffffffff1673ffffffffffffffffffffffffffffffffffffffff16815260200191505060405180910390f35b3480156100d557600080fd5b506100f4600480360381019080803590602001909291905050506102e5565b60405180806020018681526020018561ffff1661ffff1681526020018467ffffffffffffffff1667ffffffffffffffff168152602001838152602001828103825287818151815260200191508051906020019080838360005b8381101561016857808201518184015260208101905061014d565b50505050905090810190601f1680156101955780820380516001836020036101000a031916815260200191505b50965050505050505060405180910390f35b3480156101b357600080fd5b506101d2600480360381019080803590602001909291905050506103e4565b604051808273ffffffffffffffffffffffffffffffffffffffff1673ffffffffffffffffffffffffffffffffffffffff16815260200191505060405180910390f35b34801561022057600080fd5b5061027b600480360381019080803590602001908201803590602001908080601f0160208091040260200160405190810160405280939291908181526020018383808284378201915050505050509192919290505050610417565b005b34801561028957600080fd5b506102be600480360381019080803573ffffffffffffffffffffffffffffffffffffffff169060200190929190505050610499565b005b6000809054906101000a900473ffffffffffffffffffffffffffffffffffffffff1681565b6003818154811015156102f457fe5b9060005260206000209060040201600091509050806000018054600181600116156101000203166002900480601f0160208091040260200160405190810160405280929190818152602001828054600181600116156101000203166002900480156103a05780601f10610375576101008083540402835291602001916103a0565b820191906000526020600020905b81548152906001019060200180831161038357829003601f168201915b5050505050908060010154908060020160009054906101000a900461ffff16908060020160029054906101000a900467ffffffffffffffff16908060030154905085565b60046020528060005260406000206000915054906101000a900473ffffffffffffffffffffffffffffffffffffffff1681565b6000806000600560003373ffffffffffffffffffffffffffffffffffffffff1673ffffffffffffffffffffffffffffffffffffffff1681526020019081526020016000205414151561046857600080fd5b610471836105ee565b915060648281151561047f57fe5b06820391503390506104948383600084610670565b505050565b6000809054906101000a900473ffffffffffffffffffffffffffffffffffffffff1673ffffffffffffffffffffffffffffffffffffffff163373ffffffffffffffffffffffffffffffffffffffff161415156104f457600080fd5b600073ffffffffffffffffffffffffffffffffffffffff168173ffffffffffffffffffffffffffffffffffffffff161415151561053057600080fd5b8073ffffffffffffffffffffffffffffffffffffffff166000809054906101000a900473ffffffffffffffffffffffffffffffffffffffff1673ffffffffffffffffffffffffffffffffffffffff167f8be0079c531659141344cd1fd0a4f28419497f9722a3daafe3b4186f6b6457e060405160405180910390a3806000806101000a81548173ffffffffffffffffffffffffffffffffffffffff021916908373ffffffffffffffffffffffffffffffffffffffff16021790555050565b600080826040518082805190602001908083835b6020831015156106275780518252602082019150602081019050602083039250610602565b6001836020036101000a03801982511681845116808217855250505050505090500191505060405180910390206001900490506002548181151561066757fe5b06915050919050565b600061067a610aa0565b600062015180925060a0604051908101604052808881526020018781526020018661ffff1681526020014267ffffffffffffffff1681526020018481525091506001600383908060018154018082558091505090600182039060005260206000209060040201600090919290919091506000820151816000019080519060200190610706929190610ade565b506020820151816001015560408201518160020160006101000a81548161ffff021916908361ffff16021790555060608201518160020160026101000a81548167ffffffffffffffff021916908367ffffffffffffffff160217905550608082015181600301555050039050336004600083815260200190815260200160002060006101000a81548173ffffffffffffffffffffffffffffffffffffffff021916908373ffffffffffffffffffffffffffffffffffffffff160217905550600560003373ffffffffffffffffffffffffffffffffffffffff1673ffffffffffffffffffffffffffffffffffffffff168152602001908152602001600020600081548092919060010191905055507f764243b2f6b4bf5ec997f0ab25ccfd7dfa02c96678347d4cdf47a16db1ff567c8188886040518084815260200180602001838152602001828103825284818151815260200191508051906020019080838360005b83811015610883578082015181840152602081019050610868565b50505050905090810190601f1680156108b05780820380516001836020036101000a031916815260200191505b5094505050505060405180910390a16108cb600085836108d4565b50505050505050565b600560008373ffffffffffffffffffffffffffffffffffffffff1673ffffffffffffffffffffffffffffffffffffffff16815260200190815260200160002060008154809291906001019190505550816004600083815260200190815260200160002060006101000a81548173ffffffffffffffffffffffffffffffffffffffff021916908373ffffffffffffffffffffffffffffffffffffffff160217905550600073ffffffffffffffffffffffffffffffffffffffff168373ffffffffffffffffffffffffffffffffffffffff161415156109fc57600560008473ffffffffffffffffffffffffffffffffffffffff1673ffffffffffffffffffffffffffffffffffffffff16815260200190815260200160002060008154809291906001900391905055505b7f615a90b6cfa77287f9e381f0aed394618bcfa338a2b4039eb03854fd16277f6d838383604051808473ffffffffffffffffffffffffffffffffffffffff1673ffffffffffffffffffffffffffffffffffffffff1681526020018373ffffffffffffffffffffffffffffffffffffffff1673ffffffffffffffffffffffffffffffffffffffff168152602001828152602001935050505060405180910390a1505050565b60a0604051908101604052806060815260200160008152602001600061ffff168152602001600067ffffffffffffffff168152602001600081525090565b828054600181600116156101000203166002900490600052602060002090601f016020900481019282601f10610b1f57805160ff1916838001178555610b4d565b82800160010185558215610b4d579182015b82811115610b4c578251825591602001919060010190610b31565b5b509050610b5a9190610b5e565b5090565b610b8091905b80821115610b7c576000816000905550600101610b64565b5090565b905600a165627a7a7230582009e776e75941c78c4a2c883f580e083c655cd3660852fe66b8122b588ce42b2b0029",
  "source": "pragma solidity ^0.4.19;\r\n\r\nimport \"./ownable.sol\";\r\n\r\ncontract AquariumGarden is Ownable {\r\n\r\n    event SeabyBirth(uint seabyId, string name, uint dna);\r\n    event TransferFinish(address from, address to, uint256 tokenId);\r\n\r\n    uint dnaDigits = 16;\r\n    uint dnaModulus = 10 ** dnaDigits;\r\n\r\n    struct Seaby {\r\n      string name;\r\n      uint dna;\r\n      uint16 generation;\r\n      uint64 birthtime;\r\n      uint siringCD;\r\n    }\r\n    Seaby[] public seabies;\r\n    mapping (uint => address) public SeabyToOwner;\r\n    mapping (address => uint) ownerSeabyCount;\r\n\r\n    function _createSeaby(string _name, uint _dna, uint16 _generation, address _owner) internal {\r\n        uint _siringCD = 1 days;\r\n\r\n        Seaby memory _seaby = Seaby({\r\n            name: _name,\r\n            dna: _dna,\r\n            generation: _generation,\r\n            birthtime: uint64(now),\r\n            siringCD:  _siringCD\r\n        });\r\n        uint NewCBId = seabies.push(_seaby)-1;\r\n        SeabyToOwner[NewCBId] = msg.sender;\r\n        ownerSeabyCount[msg.sender]++;\r\n        SeabyBirth(NewCBId, _name, _dna);\r\n        _transfer(0,_owner,NewCBId);\r\n\r\n    }\r\n\r\n    function _generateRandomDna(string _str) private view returns (uint) {\r\n        uint rand = uint(keccak256(_str));\r\n        return rand % dnaModulus;\r\n    }\r\n\r\n    function createRandomSeaby(string _name) public {\r\n        require(ownerSeabyCount[msg.sender] == 0);\r\n        uint m_Dna = _generateRandomDna(_name);\r\n        m_Dna = m_Dna - m_Dna % 100;\r\n        address _owner = msg.sender;\r\n        _createSeaby(_name, m_Dna, 0, _owner);\r\n    }\r\n    function _transfer(address _from, address _to, uint256 _tokenId) internal{\r\n        ownerSeabyCount[_to]++;\r\n        SeabyToOwner[_tokenId] = _to;\r\n        if(_from != address(0)){\r\n            ownerSeabyCount[_from]--;\r\n        }\r\n        TransferFinish(_from,_to,_tokenId);\r\n    }\r\n\r\n}\r\n",
  "sourcePath": "C:\\Users\\chong\\Documents\\works\\KU_2018_Fall\\EECS_581\\p1\\forks\\Seathereum\\truffle\\contracts\\aquariumgarden.sol",
  "compiler": {
    "name": "solc",
    "version": "0.4.24+commit.e67f0147.Emscripten.clang"
  },
  "schemaVersion": "2.0.1",
  "updatedAt": "2018-11-26T07:34:41.378Z"
}