{
  "contractName": "ERC721Metadata",
  "abi": [
    {
      "constant": true,
      "inputs": [
        {
          "name": "_tokenId",
          "type": "uint256"
        },
        {
          "name": "",
          "type": "string"
        }
      ],
      "name": "getMetadata",
      "outputs": [
        {
          "name": "buffer",
          "type": "bytes32[4]"
        },
        {
          "name": "count",
          "type": "uint256"
        }
      ],
      "payable": false,
      "stateMutability": "view",
      "type": "function"
    }
  ],
  "bytecode": "0x608060405234801561001057600080fd5b50610365806100206000396000f300608060405260043610610041576000357c0100000000000000000000000000000000000000000000000000000000900463ffffffff168063cb4799f214610046575b600080fd5b34801561005257600080fd5b506100b760048036038101908080359060200190929190803590602001908201803590602001908080601f01602080910402602001604051908101604052809392919081815260200183838082843782019150505050505091929192905050506100fc565b6040518083600460200280838360005b838110156100e25780820151818401526020810190506100c7565b505050509050018281526020019250505060405180910390f35b610104610316565b6000600184141561015b577f48656c6c6f20576f726c6421000000000000000000000000000000000000000082600060048110151561013f57fe5b60200201906000191690816000191681525050600f905061030f565b60028414156101f3577f4920776f756c6420646566696e6974656c792063686f6f73652061206d65646982600060048110151561019457fe5b602002019060001916908160001916815250507f756d206c656e67746820737472696e672e0000000000000000000000000000008260016004811015156101d757fe5b602002019060001916908160001916815250506031905061030e565b600384141561030d577f4c6f72656d20697073756d20646f6c6f722073697420616d65742c206d69206582600060048110151561022c57fe5b602002019060001916908160001916815250507f737420616363756d73616e2064617069627573206175677565206c6f72656d2c82600160048110151561026f57fe5b602002019060001916908160001916815250507f2074726973746971756520766573746962756c756d2069642c206c696265726f8260026004811015156102b257fe5b602002019060001916908160001916815250507f207375736369706974207661726975732073617069656e20616c697175616d2e8260036004811015156102f557fe5b60200201906000191690816000191681525050608090505b5b5b9250929050565b6080604051908101604052806004906020820280388339808201915050905050905600a165627a7a7230582057a05eac76464dc9121f9f817506bacab41bab0a7636d9bf38c1de28d4c75e8a0029",
  "source": "pragma solidity ^0.4.19;\r\n\r\n\r\ncontract ERC721Metadata {\r\n    function getMetadata(uint256 _tokenId, string) public view returns (bytes32[4] buffer, uint256 count) {\r\n        if (_tokenId == 1) {\r\n            buffer[0] = \"Hello World!\";\r\n            count = 15;\r\n        } \r\n        else if (_tokenId == 2) {\r\n            buffer[0] = \"I would definitely choose a medi\";\r\n            buffer[1] = \"um length string.\";\r\n            count = 49;\r\n        } \r\n        else if (_tokenId == 3) {\r\n            buffer[0] = \"Lorem ipsum dolor sit amet, mi e\";\r\n            buffer[1] = \"st accumsan dapibus augue lorem,\";\r\n            buffer[2] = \" tristique vestibulum id, libero\";\r\n            buffer[3] = \" suscipit varius sapien aliquam.\";\r\n            count = 128;\r\n        }\r\n    }\r\n}",
  "sourcePath": "C:\\Users\\chong\\Documents\\works\\KU_2018_Fall\\EECS_581\\p1\\forks\\Seathereum\\truffle\\contracts\\erc721metadata.sol",
  "compiler": {
    "name": "solc",
    "version": "0.4.24+commit.e67f0147.Emscripten.clang"
  },
  "schemaVersion": "2.0.1",
  "updatedAt": "2018-11-26T07:33:32.388Z"
}